:100000000C942A000C9447000C9447000C94470071
:100010000C949E070C9447000C9447000C944700E6
:100020000C9447000C9447000C9477070C944700FD
:100030000C9447000C9447000C9447000C94470024
:100040000C9447000C9447000C9447000C94470014
:100050000C94470011241FBECFE5D8E0DEBFCDBF12
:1000600010E0A0E6B0E0E2E6F0E102C005900D92FB
:10007000A63EB107D9F721E0A6EEB0E001C01D927F
:10008000AB3EB207E1F70E9422050C942F080C94B6
:10009000000085B78F7E85BF85B78F7D85BF85B70B
:1000A0008F7B85BF85B7806885BF80E0089561E05C
:1000B0008FE00E94580108952F923F924F925F92D5
:1000C0006F927F928F929F92AF92BF92CF92DF9268
:1000D000EF92FF920F931F93CF93DF9380E090E016
:1000E0000F2EF8E3CF2ED12CF02D0F2EF6E3EF2EAE
:1000F000F12CF02D07E310E0CBE3D0E0A9E3B0E072
:100100006AE370E045E350E00F2EF3E3AF2EB12C2D
:10011000F02D0F2EF4E38F2E912CF02D0F2EF2E305
:100120006F2E712CF02D0F2EF0E34F2E512CF02D51
:100130000F2EF1E32F2E312CF02D282F382F36954E
:10014000369536953130C1F028F0323039F1333000
:10015000B9F147C0FC01EE0FFF1FEE0FFF1FEE0FBE
:10016000FF1FE81BF90BEA51FF4FD383C283B5830E
:10017000A4837183608335C0FC01EE0FFF1FEE0F77
:10018000FF1FEE0FFF1FE81BF90BEA51FF4FD38251
:10019000C282F582E4821183008323C0FC01EE0F4A
:1001A000FF1FEE0FFF1FEE0FFF1FE81BF90BEA51B9
:1001B000FF4F53834283B582A4829182808211C013
:1001C000FC01EE0FFF1FEE0FFF1FEE0FFF1FE81BDE
:1001D000F90BEA51FF4F7382628255824482318269
:1001E00020822770FC01EE0FFF1FEE0FFF1FEE0FA6
:1001F000FF1FE81BF90BEA51FF4F2683019680325F
:10020000910509F09ACFDF91CF911F910F91FF9047
:10021000EF90DF90CF90BF90AF909F908F907F90A6
:100220006F905F904F903F902F900895611116C08E
:1002300097E0899FF0011124EA51FF4F3681019028
:10024000F081E02D208181E090E002C0880F991FAD
:100250003A95E2F780958223808308956130A1F476
:1002600097E0899FF0011124EA51FF4F36810190F8
:10027000F081E02D208181E090E002C0880F991F7D
:100280003A95E2F7822B8083089527E0829FC00190
:100290001124FC01EA51FF4FA481B5818C91268184
:1002A00090E002C0959587952A95E2F781700895B0
:1002B000611116C097E0899FF0011124EA51FF4FA8
:1002C00036810280F381E02D208181E090E002C040
:1002D000880F991F3A95E2F78095822380830895CD
:1002E0006130A1F497E0899FF0011124EA51FF4F9A
:1002F00036810280F381E02D208181E090E002C010
:10030000880F991F3A95E2F7822B808308950E9407
:1003100066030E943E0208958091C801813009F46D
:1003200050C038F0823009F46FC0833009F489C0BE
:1003300008950E94720460E080E00E944904809168
:10034000C70124E1829FC001112486589F4F0E945B
:100350005C0486E00E94E602813049F488E00E9455
:10036000E602813021F483E08093C801089586E09D
:100370000E94E602813081F4E091C701F0E0EB5881
:10038000FF4F8081823021F481E08093C80108957D
:1003900082E08093C801089588E00E94E6028130DF
:1003A00009F06BC0E091C701F0E0EB58FF4F80818E
:1003B000813019F48093C801089582E08093C801C8
:1003C00008950E94720460E080E00E94490480E683
:1003D00090E00E945C0484E00E94E602813009F013
:1003E0004CC08091C7018F5F8093C701853048F072
:1003F00083E08093C8018091C6018F5F8093C6011E
:1004000008951092C80108950E94720460E080E08F
:100410000E94490485E690E00E945C0484E00E940A
:10042000E602813051F58091C7018F5F8093C7014B
:10043000853020F083E08093C80108951092C801B0
:1004400008950E94720460E080E00E9449048AE6F8
:1004500090E00E945C046091C60170E080E090E052
:100460000E94050581E00E94E602813031F410927D
:10047000C8011092C7011092C60108950F931F93EF
:10048000CF93DF930E945C00C1EED0E004EE10E059
:1004900061E089910E941601C017D107C9F7CEED1E
:1004A000D0E001EE10E060E089910E9416010C1787
:1004B0001D07C9F7E2EDF1E0A9ECB1E08BED91E0A9
:1004C00011921D92E817F907D9F7DF91CF911F918B
:1004D0000F910895AF92BF92CF92DF92EF92FF9269
:1004E0000F931F93CF93DF930F2EF1EECF2EF0E0FB
:1004F000DF2EF02DC0E0AA24A394F601B1906F0185
:100500006A2D8B2D0E9458010F2EFEEDEF2EF0E08C
:10051000FF2EF02DD3E0DC0F0C2F10E0F801EE528F
:10052000FE4F80818823F1F08130B9F5F701808199
:100530000E944501813029F4F801E753FE4F1082F3
:100540002CC0F801E753FE4F80818F5F80838F308E
:1005500020F1F801EE52FE4F1082F801E753FE4FF2
:1005600010821BC0F70180810E944501811105C0E6
:10057000F801E753FE4F108210C0F801E753FE4F19
:1005800080818F5F80838F3040F0F801EE52FE4F04
:10059000A082F801E753FE4F1082CF5FFFEFEF1A02
:1005A000FF0ACD13B9CF60E08B2D0E945801CD2FEB
:1005B000D93009F0A2CFDF91CF911F910F91FF9019
:1005C000EF90DF90CF90BF90AF900895E82FF0E0CC
:1005D000EE52FE4F81E09081913009F080E0089565
:1005E000EF92FF920F931F93CF93C82F60E081E0AB
:1005F0000E94580160E082E00E94580161E083E0BF
:100600000E9458010F2EF5E0EF2EF02DF12C00E0A6
:1006100010E020E030E040E050E060E081E00E9447
:1006200070068BB38F709C2F907F892B8BBB20E043
:1006300030E040E050E060E081E00E94700660E061
:1006400083E00E94580120E030E040E050E060E0AC
:1006500081E00E94700661E083E00E94580120E082
:1006600030E040E050E060E081E00E9470068BB333
:10067000282F2F7030E1C39FC0011124822B8BBB28
:1006800020E030E040E050E060E081E00E94700651
:1006900060E083E00E94580120E030E040E050E05C
:1006A00060E081E00E94700661E083E00E945801F2
:1006B00020E030E040E050E060E081E00E94700621
:1006C000CF911F910F91FF90EF900895EF92FF92BD
:1006D0000F931F930E94D1058FEF8ABB0F2EF5E079
:1006E000EF2EF02DF12C00E010E020E030E040E0B3
:1006F00050E060E081E00E94700683E30E94F00217
:1007000020E030E040E050E060E081E00E947006D0
:1007100082E30E94F00220E030E040E050E060E040
:1007200081E00E94700688E20E94F00220E030E042
:1007300040E050E060E081E00E94700682E00E94AC
:10074000F00220E030E040E050E060E081E00E9414
:1007500070068CE00E94F00220E030E040E050E0C3
:1007600060E081E00E94700686E00E94F00220E0D6
:1007700030E040E050E060E081E00E94700681E0FF
:100780000E94F0020F2EF8ECEF2EF02D20E030E06A
:1007900040E050E060E081E00E9470061F910F9100
:1007A000FF90EF900895EF92FF920F931F93CF93D6
:1007B000C82F61E081E00E94580160E082E00E9461
:1007C000580161E083E00E9458010F2EF5E0EF2E02
:1007D000F02DF12C00E010E020E030E040E050E0AF
:1007E00060E081E00E9470068BB38F709C2F907F39
:1007F000892B8BBB20E030E040E050E060E081E0FE
:100800000E94700660E083E00E94580120E030E022
:1008100040E050E060E081E00E94700661E083E02B
:100820000E94580120E030E040E050E060E081E0CC
:100830000E9470068BB3282F2F7030E1C39FC00138
:100840001124822B8BBB20E030E040E050E060E0E0
:1008500081E00E94700660E083E00E94580120E081
:1008600030E040E050E060E081E00E94700661E02E
:1008700083E00E94580120E030E040E050E060E07A
:1008800081E00E947006CF911F910F91FF90EF9031
:1008900008959FEF960F903170F4813019F08230F7
:1008A00031F008958FE7860F0E94F00208958FEBD4
:1008B000860F0E94F00208950F931F93CF93FC01BF
:1008C0008081882359F08F01C0E00E94D303CF5F5D
:1008D000F801EC0FF11D80818111F7CFCF911F91AD
:1008E0000F91089581E00E94F00208959C016150EB
:1008F00079F090E0D901A90FB11D8C91F901E60FB3
:10090000F11D40814C9380839F5F6150961790F357
:1009100008957F928F929F92AF92BF92CF92DF9273
:10092000EF92FF920F931F93CF93DF936B017C01A4
:100930008A01611571058105910529F480E3FA01A9
:100940008083118253C0992394F42A3091F4F09457
:10095000E094D094C094C11CD11CE11CF11CC114C2
:10096000D104E104F10499F17724739403C0712C4C
:1009700001C0712CC1E0822E912CA12CB12C01C0A0
:10098000C82FDFEFDC0FC701B601A50194010E945B
:10099000D9076A3030F0F801ED0FF11D695C608312
:1009A00005C0F801ED0FF11D605D6083C701B60160
:1009B000A50194010E94D90769017A0181E08C0F99
:1009C000232B242B252BE1F6772041F001C0C0E03A
:1009D000F801EC0FF11D8DE28083CF5FF801EC0F81
:1009E000F11D10826C2FC8010E947604C801DF91AE
:1009F000CF911F910F91FF90EF90DF90CF90BF901C
:100A0000AF909F908F907F900895CF93DF93CDB755
:100A1000DEB760970FB6F894DEBF0FBECDBF2AE0F9
:100A2000AE014F5F5F4F0E948904CE0101960E9484
:100A30005C0460960FB6F894DEBF0FBECDBFDF91A9
:100A4000CF9108950E945C000E9487010E94640576
:100A50004AE652E062E070E080E00E9471054CE8F6
:100A600051E062E370E081E00E9471050E94A205FE
:100A700080E090E008952091DB013091DC012F5F50
:100A80003F4F3093DC012093DB018091E101823004
:100A900059F46091DD017091DE01C9010E94C50722
:100AA000892B11F41092E1018091E601823059F412
:100AB0006091E2017091E301C9010E94C507892B91
:100AC00011F41092E6010895EDEDF1E083E08483E6
:100AD000138212828187108617820E94D10580E0DE
:100AE0000895CF938230B0F490E0FC01EE0FFF1F29
:100AF000EE0FFF1FE80FF91FE352FE4F22813381F3
:100B0000232B51F4C1E06115710509F0C0E0CC233D
:100B100039F003C0C1E001C0C1E00E9457000FC01E
:100B2000FC01EE0FFF1FEE0FFF1F8E0F9F1FFC013A
:100B3000E352FE4F718360835383428314828C2F70
:100B4000CF9108958FB780688FBF4BE355E061E088
:100B500080E00E9411060DED11E06894FF24F1F889
:100B6000D12CE12CBB24B394C12CF80184818823BF
:100B700031F08185811112C0CB2DDC2D02C0CD2D2D
:100B8000DE2DCE01880F991F880F991FC80FD91F1E
:100B9000C352DE4FEA81FB810995FC820E94490025
:100BA000E4CFCF938091E400833098F1C1E001C09D
:100BB000C0E0CC2329F001C0C1E00E9457002EC044
:100BC000E4EEF0E026EE30E08191813059F018F04B
:100BD0008230A9F01AC083B78F7B83BF83B7886048
:100BE00083BF13C08FB58E7F8FBD8FB58D7F8FBDB7
:100BF0008EB588608EBD8EB58F7E8EBD06C085B5E4
:100C00008F7B85BD85B5886085BD2E173F07E1F6D2
:100C100005C08091E500833058F2CECF8C2FCF9164
:100C20000895CF934115510579F0623009F047C01E
:100C3000E82FF0E0EC51FF4FC1E09081913009F4D2
:100C4000C0E0CC2329F001C0C1E00E94570045C09C
:100C500024E092E102C023E09DE7E82FF0E0EC51B0
:100C6000FF4F8081882319F08230A1F026C012BE88
:100C700088B7826088BF5093EA014093E90189B741
:100C8000826089BF9CBF93B7987F822F892B83BFD7
:100C9000C0E023C014BC88B7806888BF5093E801C7
:100CA0004093E70189B7806889BF93BD95B5987F68
:100CB000822F892B85BDC0E010C0C0E00EC061301E
:100CC00051F228F0623031F424E092E1C6CF21E005
:100CD00090E5C3CF20E090E0C0CF8C2FCF91089556
:100CE0004F925F926F927F928F929F92AF92BF923C
:100CF000CF92DF92EF92FF920F931F93CF93DF93E8
:100D0000CDB7DEB728970FB6F894DEBF0FBECDBFC4
:100D10005E2C6F2C702E812E922E432EF42FE52FF9
:100D200019821A821B821C821D821E821F821886D3
:100D3000613039F018F0623039F009C021E030E557
:100D400008C023E03AEF05C024E032E102C020E011
:100D500030E090E08C519F4FDC018C91882321F092
:100D6000823009F457C0ABC012BE88B7826088BF1A
:100D70003CBF93B7987F822F892B83BF19821A8239
:100D80001B821C821D821E821F821886A980BA8047
:100D9000CB80DC80ED80FE800F811885252D362DDF
:100DA000472D582D692D742D8F2F9E2F0E940408DA
:100DB00069F160F108B601FEFDCF88B7826088BF97
:100DC00029813A814B815C816D817E818F819885FB
:100DD000A1E00E94F80729833A834B835C836D83EB
:100DE0007E838F83988729813A814B815C816D81D5
:100DF0007E818F819885A52CB62CC72CD82CE92C08
:100E0000F42C0F2F1E2F0E940408A0F283B7887FB6
:100E100083BF55C014BC88B7806888BF33BD85B513
:100E2000887F822B85BD19821A821B821C821D82BB
:100E30001E821F821886A980BA80CB80DC80ED805C
:100E4000FE800F811885252D362D472D582D692DB3
:100E5000742D8F2F9E2F0E94040871F168F108B63F
:100E600007FEFDCF88B7806888BF29813A814B8112
:100E70005C816D817E818F819885A1E00E94F80759
:100E800029833A834B835C836D837E838F8398872A
:100E9000A980BA80CB80DC80ED80FE800F81188530
:100EA000252D362D472D582D692D742D8F2F9E2FD2
:100EB0000E94040809F098F685B5887F85BD80E01A
:100EC00028960FB6F894DEBF0FBECDBFDF91CF914D
:100ED0001F910F91FF90EF90DF90CF90BF90AF9058
:100EE0009F908F907F906F905F904F9008951F928A
:100EF0000F920FB60F9211242F933F934F935F934E
:100F00006F937F938F939F93AF93BF93EF93FF93D1
:100F1000E091E901F091EA010995FF91EF91BF910C
:100F2000AF919F918F917F916F915F914F913F9181
:100F30002F910F900FBE0F901F9018951F920F9238
:100F40000FB60F9211242F933F934F935F936F939C
:100F50007F938F939F93AF93BF93EF93FF93E09112
:100F6000E701F091E8010995FF91EF91BF91AF91F1
:100F70009F918F917F916F915F914F913F912F91B1
:100F80000F900FBE0F901F901895AA1BBB1B51E12D
:100F900007C0AA1FBB1FA617B70710F0A61BB70BE9
:100FA000881F991F5A95A9F780959095BC01CD018E
:100FB0000895052E97FB1EF400940E94F00757FD3C
:100FC00007D00E940D0807FC03D04EF40C94F007E4
:100FD00050954095309521953F4F4F4F5F4F089565
:100FE00090958095709561957F4F8F4F9F4F089595
:100FF0000024A7FD00942A0F301D401D501D601DC8
:10100000701D801D901D08952A153B054C055D053A
:101010006E057F05800791070895A1E21A2EAA1B8D
:10102000BB1BFD010DC0AA1FBB1FEE1FFF1FA21798
:10103000B307E407F50720F0A21BB30BE40BF50B95
:10104000661F771F881F991F1A9469F7609570951E
:10105000809590959B01AC01BD01CF010895F89456
:02106000FFCFC0
:1010620020203A290020203A2800202073636F7242
:1010720065203D20000101020102202031202D20A7
:10108200416E737765722069732039000000202059
:1010920032202D20416E73776572206973203900EA
:1010A2000000202033202D20416E73776572206965
:1010B200732037000000202034202D20416E7377EA
:1010C20065722069732039000000202035202D2010
:1010D200416E737765722069732037000000151620
:0610E200171213140002B6
:00000001FF
